{
  "abi": [
    {
      "type": "constructor",
      "inputs": [
        {
          "name": "_ydToken",
          "type": "address",
          "internalType": "address"
        }
      ],
      "stateMutability": "nonpayable"
    },
    {
      "type": "function",
      "name": "authorBalance",
      "inputs": [
        {
          "name": "",
          "type": "address",
          "internalType": "address"
        }
      ],
      "outputs": [
        {
          "name": "",
          "type": "uint256",
          "internalType": "uint256"
        }
      ],
      "stateMutability": "view"
    },
    {
      "type": "function",
      "name": "courseBalance",
      "inputs": [
        {
          "name": "",
          "type": "uint256",
          "internalType": "uint256"
        }
      ],
      "outputs": [
        {
          "name": "",
          "type": "uint256",
          "internalType": "uint256"
        }
      ],
      "stateMutability": "view"
    },
    {
      "type": "function",
      "name": "courses",
      "inputs": [
        {
          "name": "",
          "type": "uint256",
          "internalType": "uint256"
        }
      ],
      "outputs": [
        {
          "name": "id",
          "type": "uint256",
          "internalType": "uint256"
        },
        {
          "name": "author",
          "type": "address",
          "internalType": "address"
        },
        {
          "name": "price",
          "type": "uint256",
          "internalType": "uint256"
        },
        {
          "name": "metadataUri",
          "type": "string",
          "internalType": "string"
        },
        {
          "name": "active",
          "type": "bool",
          "internalType": "bool"
        }
      ],
      "stateMutability": "view"
    },
    {
      "type": "function",
      "name": "createCourse",
      "inputs": [
        {
          "name": "priceInYD",
          "type": "uint256",
          "internalType": "uint256"
        },
        {
          "name": "metadataUri",
          "type": "string",
          "internalType": "string"
        }
      ],
      "outputs": [
        {
          "name": "courseId",
          "type": "uint256",
          "internalType": "uint256"
        }
      ],
      "stateMutability": "nonpayable"
    },
    {
      "type": "function",
      "name": "getAuthorBalance",
      "inputs": [
        {
          "name": "author",
          "type": "address",
          "internalType": "address"
        }
      ],
      "outputs": [
        {
          "name": "",
          "type": "uint256",
          "internalType": "uint256"
        }
      ],
      "stateMutability": "view"
    },
    {
      "type": "function",
      "name": "getCourse",
      "inputs": [
        {
          "name": "courseId",
          "type": "uint256",
          "internalType": "uint256"
        }
      ],
      "outputs": [
        {
          "name": "",
          "type": "tuple",
          "internalType": "struct CourseManager.Course",
          "components": [
            {
              "name": "id",
              "type": "uint256",
              "internalType": "uint256"
            },
            {
              "name": "author",
              "type": "address",
              "internalType": "address"
            },
            {
              "name": "price",
              "type": "uint256",
              "internalType": "uint256"
            },
            {
              "name": "metadataUri",
              "type": "string",
              "internalType": "string"
            },
            {
              "name": "active",
              "type": "bool",
              "internalType": "bool"
            }
          ]
        }
      ],
      "stateMutability": "view"
    },
    {
      "type": "function",
      "name": "getCourseBalance",
      "inputs": [
        {
          "name": "courseId",
          "type": "uint256",
          "internalType": "uint256"
        }
      ],
      "outputs": [
        {
          "name": "",
          "type": "uint256",
          "internalType": "uint256"
        }
      ],
      "stateMutability": "view"
    },
    {
      "type": "function",
      "name": "getUserPurchasedCourses",
      "inputs": [
        {
          "name": "user",
          "type": "address",
          "internalType": "address"
        }
      ],
      "outputs": [
        {
          "name": "",
          "type": "uint256[]",
          "internalType": "uint256[]"
        }
      ],
      "stateMutability": "view"
    },
    {
      "type": "function",
      "name": "hasPurchased",
      "inputs": [
        {
          "name": "",
          "type": "address",
          "internalType": "address"
        },
        {
          "name": "",
          "type": "uint256",
          "internalType": "uint256"
        }
      ],
      "outputs": [
        {
          "name": "",
          "type": "bool",
          "internalType": "bool"
        }
      ],
      "stateMutability": "view"
    },
    {
      "type": "function",
      "name": "hasUserPurchased",
      "inputs": [
        {
          "name": "user",
          "type": "address",
          "internalType": "address"
        },
        {
          "name": "courseId",
          "type": "uint256",
          "internalType": "uint256"
        }
      ],
      "outputs": [
        {
          "name": "",
          "type": "bool",
          "internalType": "bool"
        }
      ],
      "stateMutability": "view"
    },
    {
      "type": "function",
      "name": "nextCourseId",
      "inputs": [],
      "outputs": [
        {
          "name": "",
          "type": "uint256",
          "internalType": "uint256"
        }
      ],
      "stateMutability": "view"
    },
    {
      "type": "function",
      "name": "owner",
      "inputs": [],
      "outputs": [
        {
          "name": "",
          "type": "address",
          "internalType": "address"
        }
      ],
      "stateMutability": "view"
    },
    {
      "type": "function",
      "name": "purchase",
      "inputs": [
        {
          "name": "courseId",
          "type": "uint256",
          "internalType": "uint256"
        }
      ],
      "outputs": [],
      "stateMutability": "nonpayable"
    },
    {
      "type": "function",
      "name": "renounceOwnership",
      "inputs": [],
      "outputs": [],
      "stateMutability": "nonpayable"
    },
    {
      "type": "function",
      "name": "setCourseActive",
      "inputs": [
        {
          "name": "courseId",
          "type": "uint256",
          "internalType": "uint256"
        },
        {
          "name": "isActive",
          "type": "bool",
          "internalType": "bool"
        }
      ],
      "outputs": [],
      "stateMutability": "nonpayable"
    },
    {
      "type": "function",
      "name": "transferOwnership",
      "inputs": [
        {
          "name": "newOwner",
          "type": "address",
          "internalType": "address"
        }
      ],
      "outputs": [],
      "stateMutability": "nonpayable"
    },
    {
      "type": "function",
      "name": "updateCoursePrice",
      "inputs": [
        {
          "name": "courseId",
          "type": "uint256",
          "internalType": "uint256"
        },
        {
          "name": "newPrice",
          "type": "uint256",
          "internalType": "uint256"
        }
      ],
      "outputs": [],
      "stateMutability": "nonpayable"
    },
    {
      "type": "function",
      "name": "userPurchasedCourses",
      "inputs": [
        {
          "name": "",
          "type": "address",
          "internalType": "address"
        },
        {
          "name": "",
          "type": "uint256",
          "internalType": "uint256"
        }
      ],
      "outputs": [
        {
          "name": "",
          "type": "uint256",
          "internalType": "uint256"
        }
      ],
      "stateMutability": "view"
    },
    {
      "type": "function",
      "name": "withdrawYD",
      "inputs": [
        {
          "name": "amount",
          "type": "uint256",
          "internalType": "uint256"
        }
      ],
      "outputs": [],
      "stateMutability": "nonpayable"
    },
    {
      "type": "function",
      "name": "ydToken",
      "inputs": [],
      "outputs": [
        {
          "name": "",
          "type": "address",
          "internalType": "contract IERC20"
        }
      ],
      "stateMutability": "view"
    },
    {
      "type": "event",
      "name": "AuthorWithdrawn",
      "inputs": [
        {
          "name": "author",
          "type": "address",
          "indexed": true,
          "internalType": "address"
        },
        {
          "name": "amount",
          "type": "uint256",
          "indexed": false,
          "internalType": "uint256"
        }
      ],
      "anonymous": false
    },
    {
      "type": "event",
      "name": "CourseActiveStatusChanged",
      "inputs": [
        {
          "name": "courseId",
          "type": "uint256",
          "indexed": true,
          "internalType": "uint256"
        },
        {
          "name": "active",
          "type": "bool",
          "indexed": false,
          "internalType": "bool"
        }
      ],
      "anonymous": false
    },
    {
      "type": "event",
      "name": "CourseCreated",
      "inputs": [
        {
          "name": "courseId",
          "type": "uint256",
          "indexed": true,
          "internalType": "uint256"
        },
        {
          "name": "author",
          "type": "address",
          "indexed": true,
          "internalType": "address"
        },
        {
          "name": "price",
          "type": "uint256",
          "indexed": false,
          "internalType": "uint256"
        },
        {
          "name": "metadataUri",
          "type": "string",
          "indexed": false,
          "internalType": "string"
        }
      ],
      "anonymous": false
    },
    {
      "type": "event",
      "name": "CoursePriceUpdated",
      "inputs": [
        {
          "name": "courseId",
          "type": "uint256",
          "indexed": true,
          "internalType": "uint256"
        },
        {
          "name": "oldPrice",
          "type": "uint256",
          "indexed": false,
          "internalType": "uint256"
        },
        {
          "name": "newPrice",
          "type": "uint256",
          "indexed": false,
          "internalType": "uint256"
        }
      ],
      "anonymous": false
    },
    {
      "type": "event",
      "name": "CoursePurchased",
      "inputs": [
        {
          "name": "user",
          "type": "address",
          "indexed": true,
          "internalType": "address"
        },
        {
          "name": "courseId",
          "type": "uint256",
          "indexed": true,
          "internalType": "uint256"
        },
        {
          "name": "price",
          "type": "uint256",
          "indexed": false,
          "internalType": "uint256"
        }
      ],
      "anonymous": false
    },
    {
      "type": "event",
      "name": "OwnershipTransferred",
      "inputs": [
        {
          "name": "previousOwner",
          "type": "address",
          "indexed": true,
          "internalType": "address"
        },
        {
          "name": "newOwner",
          "type": "address",
          "indexed": true,
          "internalType": "address"
        }
      ],
      "anonymous": false
    },
    {
      "type": "error",
      "name": "OwnableInvalidOwner",
      "inputs": [
        {
          "name": "owner",
          "type": "address",
          "internalType": "address"
        }
      ]
    },
    {
      "type": "error",
      "name": "OwnableUnauthorizedAccount",
      "inputs": [
        {
          "name": "account",
          "type": "address",
          "internalType": "address"
        }
      ]
    },
    {
      "type": "error",
      "name": "ReentrancyGuardReentrantCall",
      "inputs": []
    }
  ],
  "bytecode": {
    "object": "0x60a060405234801561000f575f5ffd5b50604051612b24380380612b24833981810160405281019061003191906102d7565b335f73ffffffffffffffffffffffffffffffffffffffff168173ffffffffffffffffffffffffffffffffffffffff16036100a2575f6040517f1e4fbdf70000000000000000000000000000000000000000000000000000000081526004016100999190610311565b60405180910390fd5b6100b18161018660201b60201c565b5060016100d06100c561024760201b60201c565b61027060201b60201c565b5f01819055505f73ffffffffffffffffffffffffffffffffffffffff168173ffffffffffffffffffffffffffffffffffffffff1603610144576040517f08c379a000000000000000000000000000000000000000000000000000000000815260040161013b906103aa565b60405180910390fd5b8073ffffffffffffffffffffffffffffffffffffffff1660808173ffffffffffffffffffffffffffffffffffffffff16815250506001600281905550506103c8565b5f5f5f9054906101000a900473ffffffffffffffffffffffffffffffffffffffff169050815f5f6101000a81548173ffffffffffffffffffffffffffffffffffffffff021916908373ffffffffffffffffffffffffffffffffffffffff1602179055508173ffffffffffffffffffffffffffffffffffffffff168173ffffffffffffffffffffffffffffffffffffffff167f8be0079c531659141344cd1fd0a4f28419497f9722a3daafe3b4186f6b6457e060405160405180910390a35050565b5f7f9b779b17422d0df92223018b32b4d1fa46e071723d6817e2486d003becc55f005f1b905090565b5f819050919050565b5f5ffd5b5f73ffffffffffffffffffffffffffffffffffffffff82169050919050565b5f6102a68261027d565b9050919050565b6102b68161029c565b81146102c0575f5ffd5b50565b5f815190506102d1816102ad565b92915050565b5f602082840312156102ec576102eb610279565b5b5f6102f9848285016102c3565b91505092915050565b61030b8161029c565b82525050565b5f6020820190506103245f830184610302565b92915050565b5f82825260208201905092915050565b7f436f757273654d616e616765723a20696e76616c696420594420546f6b656e205f8201527f6164647265737300000000000000000000000000000000000000000000000000602082015250565b5f61039460278361032a565b915061039f8261033a565b604082019050919050565b5f6020820190508181035f8301526103c181610388565b9050919050565b6080516127366103ee5f395f818161071a01528181610e11015261110f01526127365ff3fe608060405234801561000f575f5ffd5b506004361061012a575f3560e01c8063715018a6116100ab578063b9c5c0221161006f578063b9c5c02214610390578063d3236b69146103ae578063e0406bd9146103ca578063efef39a1146103fa578063f2fde38b146104165761012a565b8063715018a6146102e65780637d83daf2146102f05780638da5cb5b1461030e57806396f979d21461032c578063aabc3844146103605761012a565b806347a5f015116100f257806347a5f0151461020a578063490d39e9146102265780635899f583146102565780636184e909146102865780636c8f41a3146102b65761012a565b80630b91e28d1461012e578063119231321461015e5780631198a6301461018e5780632966bfcd146101be5780633912d788146101da575b5f5ffd5b610148600480360381019061014391906116c3565b610432565b6040516101559190611839565b60405180910390f35b61017860048036038101906101739190611883565b61056f565b60405161018591906118d0565b60405180910390f35b6101a860048036038101906101a39190611883565b610599565b6040516101b591906118d0565b60405180910390f35b6101d860048036038101906101d391906116c3565b6105fb565b005b6101f460048036038101906101ef919061194a565b61084b565b60405161020191906119b6565b60405180910390f35b610224600480360381019061021f91906119cf565b610a6d565b005b610240600480360381019061023b91906116c3565b610bea565b60405161024d91906119b6565b60405180910390f35b610270600480360381019061026b9190611a0d565b610bff565b60405161027d9190611ae0565b60405180910390f35b6102a0600480360381019061029b91906116c3565b610c92565b6040516102ad91906119b6565b60405180910390f35b6102d060048036038101906102cb9190611883565b610cac565b6040516102dd91906119b6565b60405180910390f35b6102ee610cd7565b005b6102f8610cea565b60405161030591906119b6565b60405180910390f35b610316610cf0565b6040516103239190611b0f565b60405180910390f35b610346600480360381019061034191906116c3565b610d17565b604051610357959493929190611b70565b60405180910390f35b61037a60048036038101906103759190611a0d565b610dfa565b60405161038791906119b6565b60405180910390f35b610398610e0f565b6040516103a59190611c23565b60405180910390f35b6103c860048036038101906103c39190611c66565b610e33565b005b6103e460048036038101906103df9190611a0d565b610f75565b6040516103f191906119b6565b60405180910390f35b610414600480360381019061040f91906116c3565b610fbb565b005b610430600480360381019061042b9190611a0d565b6113a7565b005b61043a611645565b60015f8381526020019081526020015f206040518060a00160405290815f8201548152602001600182015f9054906101000a900473ffffffffffffffffffffffffffffffffffffffff1673ffffffffffffffffffffffffffffffffffffffff1673ffffffffffffffffffffffffffffffffffffffff168152602001600282015481526020016003820180546104ce90611cd1565b80601f01602080910402602001604051908101604052809291908181526020018280546104fa90611cd1565b80156105455780601f1061051c57610100808354040283529160200191610545565b820191905f5260205f20905b81548152906001019060200180831161052857829003601f168201915b50505050508152602001600482015f9054906101000a900460ff1615151515815250509050919050565b6003602052815f5260405f20602052805f5260405f205f915091509054906101000a900460ff1681565b5f60035f8473ffffffffffffffffffffffffffffffffffffffff1673ffffffffffffffffffffffffffffffffffffffff1681526020019081526020015f205f8381526020019081526020015f205f9054906101000a900460ff16905092915050565b61060361142b565b5f8111610645576040517f08c379a000000000000000000000000000000000000000000000000000000000815260040161063c90611d71565b60405180910390fd5b8060065f3373ffffffffffffffffffffffffffffffffffffffff1673ffffffffffffffffffffffffffffffffffffffff1681526020019081526020015f205410156106c5576040517f08c379a00000000000000000000000000000000000000000000000000000000081526004016106bc90611dff565b60405180910390fd5b8060065f3373ffffffffffffffffffffffffffffffffffffffff1673ffffffffffffffffffffffffffffffffffffffff1681526020019081526020015f205f8282546107119190611e4a565b925050819055507f000000000000000000000000000000000000000000000000000000000000000073ffffffffffffffffffffffffffffffffffffffff1663a9059cbb33836040518363ffffffff1660e01b8152600401610773929190611e7d565b6020604051808303815f875af115801561078f573d5f5f3e3d5ffd5b505050506040513d601f19601f820116820180604052508101906107b39190611eb8565b6107f2576040517f08c379a00000000000000000000000000000000000000000000000000000000081526004016107e990611f53565b60405180910390fd5b3373ffffffffffffffffffffffffffffffffffffffff167f9f1a7cefebd920bffe3de7503fd307abe4a34233f82e65f431cd17e8793f438a8260405161083891906119b6565b60405180910390a261084861144d565b50565b5f5f841161088e576040517f08c379a000000000000000000000000000000000000000000000000000000000815260040161088590611fe1565b60405180910390fd5b5f83839050116108d3576040517f08c379a00000000000000000000000000000000000000000000000000000000081526004016108ca9061206f565b60405180910390fd5b600254905060025f8154809291906108ea9061208d565b91905055506040518060a001604052808281526020013373ffffffffffffffffffffffffffffffffffffffff16815260200185815260200184848080601f0160208091040260200160405190810160405280939291908181526020018383808284375f81840152601f19601f8201169050808301925050505050505081526020016001151581525060015f8381526020019081526020015f205f820151815f01556020820151816001015f6101000a81548173ffffffffffffffffffffffffffffffffffffffff021916908373ffffffffffffffffffffffffffffffffffffffff1602179055506040820151816002015560608201518160030190816109f09190612298565b506080820151816004015f6101000a81548160ff0219169083151502179055509050503373ffffffffffffffffffffffffffffffffffffffff16817f78db422d3ef3aae3907af31eb656ee0e8486da88495c1c85049c10f1d4d58519868686604051610a5e939291906123a1565b60405180910390a39392505050565b5f60015f8481526020019081526020015f2090505f815f015403610ac6576040517f08c379a0000000000000000000000000000000000000000000000000000000008152600401610abd90612441565b60405180910390fd5b3373ffffffffffffffffffffffffffffffffffffffff16816001015f9054906101000a900473ffffffffffffffffffffffffffffffffffffffff1673ffffffffffffffffffffffffffffffffffffffff1614610b57576040517f08c379a0000000000000000000000000000000000000000000000000000000008152600401610b4e906124cf565b60405180910390fd5b5f8211610b99576040517f08c379a0000000000000000000000000000000000000000000000000000000008152600401610b9090611fe1565b60405180910390fd5b5f81600201549050828260020181905550837f94400b4ef307fffa575bb3402c4a7f580f0098387e8909e4cc269fedaef8a0378285604051610bdc9291906124ed565b60405180910390a250505050565b6005602052805f5260405f205f915090505481565b606060045f8373ffffffffffffffffffffffffffffffffffffffff1673ffffffffffffffffffffffffffffffffffffffff1681526020019081526020015f20805480602002602001604051908101604052809291908181526020018280548015610c8657602002820191905f5260205f20905b815481526020019060010190808311610c72575b50505050509050919050565b5f60055f8381526020019081526020015f20549050919050565b6004602052815f5260405f208181548110610cc5575f80fd5b905f5260205f20015f91509150505481565b610cdf611467565b610ce85f6114ee565b565b60025481565b5f5f5f9054906101000a900473ffffffffffffffffffffffffffffffffffffffff16905090565b6001602052805f5260405f205f91509050805f015490806001015f9054906101000a900473ffffffffffffffffffffffffffffffffffffffff1690806002015490806003018054610d6790611cd1565b80601f0160208091040260200160405190810160405280929190818152602001828054610d9390611cd1565b8015610dde5780601f10610db557610100808354040283529160200191610dde565b820191905f5260205f20905b815481529060010190602001808311610dc157829003601f168201915b505050505090806004015f9054906101000a900460ff16905085565b6006602052805f5260405f205f915090505481565b7f000000000000000000000000000000000000000000000000000000000000000081565b5f60015f8481526020019081526020015f2090505f815f015403610e8c576040517f08c379a0000000000000000000000000000000000000000000000000000000008152600401610e8390612441565b60405180910390fd5b3373ffffffffffffffffffffffffffffffffffffffff16816001015f9054906101000a900473ffffffffffffffffffffffffffffffffffffffff1673ffffffffffffffffffffffffffffffffffffffff1614610f1d576040517f08c379a0000000000000000000000000000000000000000000000000000000008152600401610f1490612584565b60405180910390fd5b81816004015f6101000a81548160ff021916908315150217905550827f1803497cb3b639c7ac5e5d250613b0a1060d8f234b50a1f76ee581c30d3e1f7e83604051610f6891906118d0565b60405180910390a2505050565b5f60065f8373ffffffffffffffffffffffffffffffffffffffff1673ffffffffffffffffffffffffffffffffffffffff1681526020019081526020015f20549050919050565b610fc361142b565b5f60015f8381526020019081526020015f2090505f815f01540361101c576040517f08c379a000000000000000000000000000000000000000000000000000000000815260040161101390612441565b60405180910390fd5b806004015f9054906101000a900460ff1661106c576040517f08c379a000000000000000000000000000000000000000000000000000000000815260040161106390612612565b60405180910390fd5b60035f3373ffffffffffffffffffffffffffffffffffffffff1673ffffffffffffffffffffffffffffffffffffffff1681526020019081526020015f205f8381526020019081526020015f205f9054906101000a900460ff1615611105576040517f08c379a00000000000000000000000000000000000000000000000000000000081526004016110fc9061267a565b60405180910390fd5b5f816002015490507f000000000000000000000000000000000000000000000000000000000000000073ffffffffffffffffffffffffffffffffffffffff166323b872dd3330846040518463ffffffff1660e01b815260040161116a93929190612698565b6020604051808303815f875af1158015611186573d5f5f3e3d5ffd5b505050506040513d601f19601f820116820180604052508101906111aa9190611eb8565b6111e9576040517f08c379a00000000000000000000000000000000000000000000000000000000081526004016111e090611f53565b60405180910390fd5b600160035f3373ffffffffffffffffffffffffffffffffffffffff1673ffffffffffffffffffffffffffffffffffffffff1681526020019081526020015f205f8581526020019081526020015f205f6101000a81548160ff02191690831515021790555060045f3373ffffffffffffffffffffffffffffffffffffffff1673ffffffffffffffffffffffffffffffffffffffff1681526020019081526020015f2083908060018154018082558091505060019003905f5260205f20015f90919091909150558060055f8581526020019081526020015f205f8282546112ce91906126cd565b925050819055508060065f846001015f9054906101000a900473ffffffffffffffffffffffffffffffffffffffff1673ffffffffffffffffffffffffffffffffffffffff1673ffffffffffffffffffffffffffffffffffffffff1681526020019081526020015f205f82825461134491906126cd565b92505081905550823373ffffffffffffffffffffffffffffffffffffffff167f4b71ef6d807a9a201a6f28d104a403722af74f85b8f2042a8d152bd2a78f55868360405161139291906119b6565b60405180910390a350506113a461144d565b50565b6113af611467565b5f73ffffffffffffffffffffffffffffffffffffffff168173ffffffffffffffffffffffffffffffffffffffff160361141f575f6040517f1e4fbdf70000000000000000000000000000000000000000000000000000000081526004016114169190611b0f565b60405180910390fd5b611428816114ee565b50565b6114336115af565b60026114456114406115f0565b611619565b5f0181905550565b600161145f61145a6115f0565b611619565b5f0181905550565b61146f611622565b73ffffffffffffffffffffffffffffffffffffffff1661148d610cf0565b73ffffffffffffffffffffffffffffffffffffffff16146114ec576114b0611622565b6040517f118cdaa70000000000000000000000000000000000000000000000000000000081526004016114e39190611b0f565b60405180910390fd5b565b5f5f5f9054906101000a900473ffffffffffffffffffffffffffffffffffffffff169050815f5f6101000a81548173ffffffffffffffffffffffffffffffffffffffff021916908373ffffffffffffffffffffffffffffffffffffffff1602179055508173ffffffffffffffffffffffffffffffffffffffff168173ffffffffffffffffffffffffffffffffffffffff167f8be0079c531659141344cd1fd0a4f28419497f9722a3daafe3b4186f6b6457e060405160405180910390a35050565b6115b7611629565b156115ee576040517f3ee5aeb500000000000000000000000000000000000000000000000000000000815260040160405180910390fd5b565b5f7f9b779b17422d0df92223018b32b4d1fa46e071723d6817e2486d003becc55f005f1b905090565b5f819050919050565b5f33905090565b5f600261163c6116376115f0565b611619565b5f015414905090565b6040518060a001604052805f81526020015f73ffffffffffffffffffffffffffffffffffffffff1681526020015f8152602001606081526020015f151581525090565b5f5ffd5b5f5ffd5b5f819050919050565b6116a281611690565b81146116ac575f5ffd5b50565b5f813590506116bd81611699565b92915050565b5f602082840312156116d8576116d7611688565b5b5f6116e5848285016116af565b91505092915050565b6116f781611690565b82525050565b5f73ffffffffffffffffffffffffffffffffffffffff82169050919050565b5f611726826116fd565b9050919050565b6117368161171c565b82525050565b5f81519050919050565b5f82825260208201905092915050565b8281835e5f83830152505050565b5f601f19601f8301169050919050565b5f61177e8261173c565b6117888185611746565b9350611798818560208601611756565b6117a181611764565b840191505092915050565b5f8115159050919050565b6117c0816117ac565b82525050565b5f60a083015f8301516117db5f8601826116ee565b5060208301516117ee602086018261172d565b50604083015161180160408601826116ee565b50606083015184820360608601526118198282611774565b915050608083015161182e60808601826117b7565b508091505092915050565b5f6020820190508181035f83015261185181846117c6565b905092915050565b6118628161171c565b811461186c575f5ffd5b50565b5f8135905061187d81611859565b92915050565b5f5f6040838503121561189957611898611688565b5b5f6118a68582860161186f565b92505060206118b7858286016116af565b9150509250929050565b6118ca816117ac565b82525050565b5f6020820190506118e35f8301846118c1565b92915050565b5f5ffd5b5f5ffd5b5f5ffd5b5f5f83601f84011261190a576119096118e9565b5b8235905067ffffffffffffffff811115611927576119266118ed565b5b602083019150836001820283011115611943576119426118f1565b5b9250929050565b5f5f5f6040848603121561196157611960611688565b5b5f61196e868287016116af565b935050602084013567ffffffffffffffff81111561198f5761198e61168c565b5b61199b868287016118f5565b92509250509250925092565b6119b081611690565b82525050565b5f6020820190506119c95f8301846119a7565b92915050565b5f5f604083850312156119e5576119e4611688565b5b5f6119f2858286016116af565b9250506020611a03858286016116af565b9150509250929050565b5f60208284031215611a2257611a21611688565b5b5f611a2f8482850161186f565b91505092915050565b5f81519050919050565b5f82825260208201905092915050565b5f819050602082019050919050565b5f611a6c83836116ee565b60208301905092915050565b5f602082019050919050565b5f611a8e82611a38565b611a988185611a42565b9350611aa383611a52565b805f5b83811015611ad3578151611aba8882611a61565b9750611ac583611a78565b925050600181019050611aa6565b5085935050505092915050565b5f6020820190508181035f830152611af88184611a84565b905092915050565b611b098161171c565b82525050565b5f602082019050611b225f830184611b00565b92915050565b5f82825260208201905092915050565b5f611b428261173c565b611b4c8185611b28565b9350611b5c818560208601611756565b611b6581611764565b840191505092915050565b5f60a082019050611b835f8301886119a7565b611b906020830187611b00565b611b9d60408301866119a7565b8181036060830152611baf8185611b38565b9050611bbe60808301846118c1565b9695505050505050565b5f819050919050565b5f611beb611be6611be1846116fd565b611bc8565b6116fd565b9050919050565b5f611bfc82611bd1565b9050919050565b5f611c0d82611bf2565b9050919050565b611c1d81611c03565b82525050565b5f602082019050611c365f830184611c14565b92915050565b611c45816117ac565b8114611c4f575f5ffd5b50565b5f81359050611c6081611c3c565b92915050565b5f5f60408385031215611c7c57611c7b611688565b5b5f611c89858286016116af565b9250506020611c9a85828601611c52565b9150509250929050565b7f4e487b71000000000000000000000000000000000000000000000000000000005f52602260045260245ffd5b5f6002820490506001821680611ce857607f821691505b602082108103611cfb57611cfa611ca4565b5b50919050565b7f436f757273654d616e616765723a20616d6f756e74206d7573742062652067725f8201527f6561746572207468616e20300000000000000000000000000000000000000000602082015250565b5f611d5b602c83611b28565b9150611d6682611d01565b604082019050919050565b5f6020820190508181035f830152611d8881611d4f565b9050919050565b7f436f757273654d616e616765723a20696e73756666696369656e742062616c615f8201527f6e63650000000000000000000000000000000000000000000000000000000000602082015250565b5f611de9602383611b28565b9150611df482611d8f565b604082019050919050565b5f6020820190508181035f830152611e1681611ddd565b9050919050565b7f4e487b71000000000000000000000000000000000000000000000000000000005f52601160045260245ffd5b5f611e5482611690565b9150611e5f83611690565b9250828203905081811115611e7757611e76611e1d565b5b92915050565b5f604082019050611e905f830185611b00565b611e9d60208301846119a7565b9392505050565b5f81519050611eb281611c3c565b92915050565b5f60208284031215611ecd57611ecc611688565b5b5f611eda84828501611ea4565b91505092915050565b7f436f757273654d616e616765723a20746f6b656e207472616e736665722066615f8201527f696c656400000000000000000000000000000000000000000000000000000000602082015250565b5f611f3d602483611b28565b9150611f4882611ee3565b604082019050919050565b5f6020820190508181035f830152611f6a81611f31565b9050919050565b7f436f757273654d616e616765723a207072696365206d757374206265206772655f8201527f61746572207468616e2030000000000000000000000000000000000000000000602082015250565b5f611fcb602b83611b28565b9150611fd682611f71565b604082019050919050565b5f6020820190508181035f830152611ff881611fbf565b9050919050565b7f436f757273654d616e616765723a206d65746164617461205552492063616e6e5f8201527f6f7420626520656d707479000000000000000000000000000000000000000000602082015250565b5f612059602b83611b28565b915061206482611fff565b604082019050919050565b5f6020820190508181035f8301526120868161204d565b9050919050565b5f61209782611690565b91507fffffffffffffffffffffffffffffffffffffffffffffffffffffffffffffffff82036120c9576120c8611e1d565b5b600182019050919050565b7f4e487b71000000000000000000000000000000000000000000000000000000005f52604160045260245ffd5b5f819050815f5260205f209050919050565b5f6020601f8301049050919050565b5f82821b905092915050565b5f6008830261215d7fffffffffffffffffffffffffffffffffffffffffffffffffffffffffffffffff82612122565b6121678683612122565b95508019841693508086168417925050509392505050565b5f61219961219461218f84611690565b611bc8565b611690565b9050919050565b5f819050919050565b6121b28361217f565b6121c66121be826121a0565b84845461212e565b825550505050565b5f5f905090565b6121dd6121ce565b6121e88184846121a9565b505050565b5b8181101561220b576122005f826121d5565b6001810190506121ee565b5050565b601f8211156122505761222181612101565b61222a84612113565b81016020851015612239578190505b61224d61224585612113565b8301826121ed565b50505b505050565b5f82821c905092915050565b5f6122705f1984600802612255565b1980831691505092915050565b5f6122888383612261565b9150826002028217905092915050565b6122a18261173c565b67ffffffffffffffff8111156122ba576122b96120d4565b5b6122c48254611cd1565b6122cf82828561220f565b5f60209050601f831160018114612300575f84156122ee578287015190505b6122f8858261227d565b86555061235f565b601f19841661230e86612101565b5f5b8281101561233557848901518255600182019150602085019450602081019050612310565b86831015612352578489015161234e601f891682612261565b8355505b6001600288020188555050505b505050505050565b828183375f83830152505050565b5f6123808385611b28565b935061238d838584612367565b61239683611764565b840190509392505050565b5f6040820190506123b45f8301866119a7565b81810360208301526123c7818486612375565b9050949350505050565b7f436f757273654d616e616765723a20636f7572736520646f6573206e6f7420655f8201527f7869737400000000000000000000000000000000000000000000000000000000602082015250565b5f61242b602483611b28565b9150612436826123d1565b604082019050919050565b5f6020820190508181035f8301526124588161241f565b9050919050565b7f436f757273654d616e616765723a206f6e6c7920617574686f722063616e20755f8201527f7064617465207072696365000000000000000000000000000000000000000000602082015250565b5f6124b9602b83611b28565b91506124c48261245f565b604082019050919050565b5f6020820190508181035f8301526124e6816124ad565b9050919050565b5f6040820190506125005f8301856119a7565b61250d60208301846119a7565b9392505050565b7f436f757273654d616e616765723a206f6e6c7920617574686f722063616e20635f8201527f68616e6765207374617475730000000000000000000000000000000000000000602082015250565b5f61256e602c83611b28565b915061257982612514565b604082019050919050565b5f6020820190508181035f83015261259b81612562565b9050919050565b7f436f757273654d616e616765723a20636f75727365206973206e6f74206163745f8201527f6976650000000000000000000000000000000000000000000000000000000000602082015250565b5f6125fc602383611b28565b9150612607826125a2565b604082019050919050565b5f6020820190508181035f830152612629816125f0565b9050919050565b7f436f757273654d616e616765723a20616c7265616479207075726368617365645f82015250565b5f612664602083611b28565b915061266f82612630565b602082019050919050565b5f6020820190508181035f83015261269181612658565b9050919050565b5f6060820190506126ab5f830186611b00565b6126b86020830185611b00565b6126c560408301846119a7565b949350505050565b5f6126d782611690565b91506126e283611690565b92508282019050808211156126fa576126f9611e1d565b5b9291505056fea26469706673582212203612e65f75505e7c47372237e42389cf9e7182aaa4954a07bf520ea320b028fe64736f6c634300081e0033",
    "linkReferences": {}
  },
  "methodIdentifiers": {
    "authorBalance(address)": "aabc3844",
    "courseBalance(uint256)": "490d39e9",
    "courses(uint256)": "96f979d2",
    "createCourse(uint256,string)": "3912d788",
    "getAuthorBalance(address)": "e0406bd9",
    "getCourse(uint256)": "0b91e28d",
    "getCourseBalance(uint256)": "6184e909",
    "getUserPurchasedCourses(address)": "5899f583",
    "hasPurchased(address,uint256)": "11923132",
    "hasUserPurchased(address,uint256)": "1198a630",
    "nextCourseId()": "7d83daf2",
    "owner()": "8da5cb5b",
    "purchase(uint256)": "efef39a1",
    "renounceOwnership()": "715018a6",
    "setCourseActive(uint256,bool)": "d3236b69",
    "transferOwnership(address)": "f2fde38b",
    "updateCoursePrice(uint256,uint256)": "47a5f015",
    "userPurchasedCourses(address,uint256)": "6c8f41a3",
    "withdrawYD(uint256)": "2966bfcd",
    "ydToken()": "b9c5c022"
  },
  "id": 29
}