{
  "abi": [
    {
      "type": "constructor",
      "inputs": [
        {
          "name": "_ydToken",
          "type": "address",
          "internalType": "address"
        },
        {
          "name": "_ydPerEth",
          "type": "uint256",
          "internalType": "uint256"
        }
      ],
      "stateMutability": "nonpayable"
    },
    {
      "type": "receive",
      "stateMutability": "payable"
    },
    {
      "type": "function",
      "name": "YDPerEth",
      "inputs": [],
      "outputs": [
        {
          "name": "",
          "type": "uint256",
          "internalType": "uint256"
        }
      ],
      "stateMutability": "view"
    },
    {
      "type": "function",
      "name": "YD_TOKEN",
      "inputs": [],
      "outputs": [
        {
          "name": "",
          "type": "address",
          "internalType": "contract IERC20"
        }
      ],
      "stateMutability": "view"
    },
    {
      "type": "function",
      "name": "depositETH",
      "inputs": [],
      "outputs": [],
      "stateMutability": "payable"
    },
    {
      "type": "function",
      "name": "getEthAmountOut",
      "inputs": [
        {
          "name": "ydAmount",
          "type": "uint256",
          "internalType": "uint256"
        }
      ],
      "outputs": [
        {
          "name": "",
          "type": "uint256",
          "internalType": "uint256"
        }
      ],
      "stateMutability": "view"
    },
    {
      "type": "function",
      "name": "isActive",
      "inputs": [],
      "outputs": [
        {
          "name": "",
          "type": "bool",
          "internalType": "bool"
        }
      ],
      "stateMutability": "view"
    },
    {
      "type": "function",
      "name": "owner",
      "inputs": [],
      "outputs": [
        {
          "name": "",
          "type": "address",
          "internalType": "address"
        }
      ],
      "stateMutability": "view"
    },
    {
      "type": "function",
      "name": "pause",
      "inputs": [],
      "outputs": [],
      "stateMutability": "nonpayable"
    },
    {
      "type": "function",
      "name": "renounceOwnership",
      "inputs": [],
      "outputs": [],
      "stateMutability": "nonpayable"
    },
    {
      "type": "function",
      "name": "setRate",
      "inputs": [
        {
          "name": "_ydPerEth",
          "type": "uint256",
          "internalType": "uint256"
        }
      ],
      "outputs": [],
      "stateMutability": "nonpayable"
    },
    {
      "type": "function",
      "name": "swapYDForEth",
      "inputs": [
        {
          "name": "ydAmount",
          "type": "uint256",
          "internalType": "uint256"
        }
      ],
      "outputs": [],
      "stateMutability": "nonpayable"
    },
    {
      "type": "function",
      "name": "transferOwnership",
      "inputs": [
        {
          "name": "newOwner",
          "type": "address",
          "internalType": "address"
        }
      ],
      "outputs": [],
      "stateMutability": "nonpayable"
    },
    {
      "type": "function",
      "name": "unpause",
      "inputs": [],
      "outputs": [],
      "stateMutability": "nonpayable"
    },
    {
      "type": "function",
      "name": "withdrawETH",
      "inputs": [
        {
          "name": "amount",
          "type": "uint256",
          "internalType": "uint256"
        }
      ],
      "outputs": [],
      "stateMutability": "nonpayable"
    },
    {
      "type": "event",
      "name": "EthDeposited",
      "inputs": [
        {
          "name": "from",
          "type": "address",
          "indexed": true,
          "internalType": "address"
        },
        {
          "name": "amount",
          "type": "uint256",
          "indexed": false,
          "internalType": "uint256"
        }
      ],
      "anonymous": false
    },
    {
      "type": "event",
      "name": "EthWithdrawn",
      "inputs": [
        {
          "name": "to",
          "type": "address",
          "indexed": true,
          "internalType": "address"
        },
        {
          "name": "amount",
          "type": "uint256",
          "indexed": false,
          "internalType": "uint256"
        }
      ],
      "anonymous": false
    },
    {
      "type": "event",
      "name": "OwnershipTransferred",
      "inputs": [
        {
          "name": "previousOwner",
          "type": "address",
          "indexed": true,
          "internalType": "address"
        },
        {
          "name": "newOwner",
          "type": "address",
          "indexed": true,
          "internalType": "address"
        }
      ],
      "anonymous": false
    },
    {
      "type": "event",
      "name": "Paused",
      "inputs": [],
      "anonymous": false
    },
    {
      "type": "event",
      "name": "RateUpdated",
      "inputs": [
        {
          "name": "oldRate",
          "type": "uint256",
          "indexed": false,
          "internalType": "uint256"
        },
        {
          "name": "newRate",
          "type": "uint256",
          "indexed": false,
          "internalType": "uint256"
        }
      ],
      "anonymous": false
    },
    {
      "type": "event",
      "name": "Swapped",
      "inputs": [
        {
          "name": "user",
          "type": "address",
          "indexed": true,
          "internalType": "address"
        },
        {
          "name": "ydIn",
          "type": "uint256",
          "indexed": false,
          "internalType": "uint256"
        },
        {
          "name": "ethOut",
          "type": "uint256",
          "indexed": false,
          "internalType": "uint256"
        }
      ],
      "anonymous": false
    },
    {
      "type": "event",
      "name": "Unpaused",
      "inputs": [],
      "anonymous": false
    },
    {
      "type": "error",
      "name": "OwnableInvalidOwner",
      "inputs": [
        {
          "name": "owner",
          "type": "address",
          "internalType": "address"
        }
      ]
    },
    {
      "type": "error",
      "name": "OwnableUnauthorizedAccount",
      "inputs": [
        {
          "name": "account",
          "type": "address",
          "internalType": "address"
        }
      ]
    },
    {
      "type": "error",
      "name": "ReentrancyGuardReentrantCall",
      "inputs": []
    }
  ],
  "bytecode": {
    "object": "0x60a060405234801561000f575f5ffd5b5060405161192438038061192483398181016040528101906100319190610366565b335f73ffffffffffffffffffffffffffffffffffffffff168173ffffffffffffffffffffffffffffffffffffffff16036100a2575f6040517f1e4fbdf700000000000000000000000000000000000000000000000000000000815260040161009991906103b3565b60405180910390fd5b6100b1816101e260201b60201c565b5060016100d06100c56102a360201b60201c565b6102cc60201b60201c565b5f01819055505f73ffffffffffffffffffffffffffffffffffffffff168273ffffffffffffffffffffffffffffffffffffffff1603610144576040517f08c379a000000000000000000000000000000000000000000000000000000000815260040161013b90610426565b60405180910390fd5b5f8111610186576040517f08c379a000000000000000000000000000000000000000000000000000000000815260040161017d9061048e565b60405180910390fd5b8173ffffffffffffffffffffffffffffffffffffffff1660808173ffffffffffffffffffffffffffffffffffffffff168152505080600181905550600160025f6101000a81548160ff02191690831515021790555050506104ac565b5f5f5f9054906101000a900473ffffffffffffffffffffffffffffffffffffffff169050815f5f6101000a81548173ffffffffffffffffffffffffffffffffffffffff021916908373ffffffffffffffffffffffffffffffffffffffff1602179055508173ffffffffffffffffffffffffffffffffffffffff168173ffffffffffffffffffffffffffffffffffffffff167f8be0079c531659141344cd1fd0a4f28419497f9722a3daafe3b4186f6b6457e060405160405180910390a35050565b5f7f9b779b17422d0df92223018b32b4d1fa46e071723d6817e2486d003becc55f005f1b905090565b5f819050919050565b5f5ffd5b5f73ffffffffffffffffffffffffffffffffffffffff82169050919050565b5f610302826102d9565b9050919050565b610312816102f8565b811461031c575f5ffd5b50565b5f8151905061032d81610309565b92915050565b5f819050919050565b61034581610333565b811461034f575f5ffd5b50565b5f815190506103608161033c565b92915050565b5f5f6040838503121561037c5761037b6102d5565b5b5f6103898582860161031f565b925050602061039a85828601610352565b9150509250929050565b6103ad816102f8565b82525050565b5f6020820190506103c65f8301846103a4565b92915050565b5f82825260208201905092915050565b7f696e76616c696420746f6b656e000000000000000000000000000000000000005f82015250565b5f610410600d836103cc565b915061041b826103dc565b602082019050919050565b5f6020820190508181035f83015261043d81610404565b9050919050565b7f696e76616c6964207261746500000000000000000000000000000000000000005f82015250565b5f610478600c836103cc565b915061048382610444565b602082019050919050565b5f6020820190508181035f8301526104a58161046c565b9050919050565b6080516114596104cb5f395f81816104e0015261062e01526114595ff3fe6080604052600436106100c5575f3560e01c80638456cb591161007e578063ea6e6b6711610058578063ea6e6b671461026c578063f14210a614610294578063f2fde38b146102bc578063f6326fb3146102e45761011a565b80638456cb59146102025780638da5cb5b14610218578063c6b60855146102425761011a565b80630b058d811461011e57806322f3e2d41461014857806334fcf437146101725780633f4ba83a1461019a578063699c0597146101b0578063715018a6146101ec5761011a565b3661011a573373ffffffffffffffffffffffffffffffffffffffff167f66ff7c8f71ccc7c36152a41920d0d3b46ef3034359f76aa1498ed4478c204b5c346040516101109190610ce8565b60405180910390a2005b5f5ffd5b348015610129575f5ffd5b506101326102ee565b60405161013f9190610ce8565b60405180910390f35b348015610153575f5ffd5b5061015c6102f4565b6040516101699190610d1b565b60405180910390f35b34801561017d575f5ffd5b5061019860048036038101906101939190610d62565b610306565b005b3480156101a5575f5ffd5b506101ae61039a565b005b3480156101bb575f5ffd5b506101d660048036038101906101d19190610d62565b6103ea565b6040516101e39190610ce8565b60405180910390f35b3480156101f7575f5ffd5b50610200610455565b005b34801561020d575f5ffd5b50610216610468565b005b348015610223575f5ffd5b5061022c6104b7565b6040516102399190610dcc565b60405180910390f35b34801561024d575f5ffd5b506102566104de565b6040516102639190610e40565b60405180910390f35b348015610277575f5ffd5b50610292600480360381019061028d9190610d62565b610502565b005b34801561029f575f5ffd5b506102ba60048036038101906102b59190610d62565b610811565b005b3480156102c7575f5ffd5b506102e260048036038101906102dd9190610e83565b610998565b005b6102ec610a1c565b005b60015481565b60025f9054906101000a900460ff1681565b61030e610ab6565b5f8111610350576040517f08c379a000000000000000000000000000000000000000000000000000000000815260040161034790610f08565b60405180910390fd5b5f6001549050816001819055507fb38780ddde1f073d91c150de2696f3f7085883648ba21cc5ef01029cb21d1916818360405161038e929190610f26565b60405180910390a15050565b6103a2610ab6565b600160025f6101000a81548160ff0219169083151502179055507fa45f47fdea8a1efdd9029a5691c7f759c32b7c698632b563573e155625d1693360405160405180910390a1565b5f5f821161042d576040517f08c379a000000000000000000000000000000000000000000000000000000000815260040161042490610f97565b60405180910390fd5b600154670de0b6b3a7640000836104449190610fe2565b61044e9190611050565b9050919050565b61045d610ab6565b6104665f610b3d565b565b610470610ab6565b5f60025f6101000a81548160ff0219169083151502179055507f9e87fac88ff661f02d44f95383c817fece4bce600a3dab7a54406878b965e75260405160405180910390a1565b5f5f5f9054906101000a900473ffffffffffffffffffffffffffffffffffffffff16905090565b7f000000000000000000000000000000000000000000000000000000000000000081565b61050a610bfe565b60025f9054906101000a900460ff16610558576040517f08c379a000000000000000000000000000000000000000000000000000000000815260040161054f906110ca565b60405180910390fd5b5f811161059a576040517f08c379a000000000000000000000000000000000000000000000000000000000815260040161059190610f97565b60405180910390fd5b5f6105a4826103ea565b90505f81116105e8576040517f08c379a00000000000000000000000000000000000000000000000000000000081526004016105df90611132565b60405180910390fd5b8047101561062b576040517f08c379a00000000000000000000000000000000000000000000000000000000081526004016106229061119a565b60405180910390fd5b5f7f000000000000000000000000000000000000000000000000000000000000000073ffffffffffffffffffffffffffffffffffffffff166323b872dd3330866040518463ffffffff1660e01b8152600401610689939291906111b8565b6020604051808303815f875af11580156106a5573d5f5f3e3d5ffd5b505050506040513d601f19601f820116820180604052508101906106c99190611217565b90508061070b576040517f08c379a00000000000000000000000000000000000000000000000000000000081526004016107029061128c565b60405180910390fd5b5f3373ffffffffffffffffffffffffffffffffffffffff1683604051610730906112d7565b5f6040518083038185875af1925050503d805f811461076a576040519150601f19603f3d011682016040523d82523d5f602084013e61076f565b606091505b50509050806107b3576040517f08c379a00000000000000000000000000000000000000000000000000000000081526004016107aa90611335565b60405180910390fd5b3373ffffffffffffffffffffffffffffffffffffffff167f3a9a9f34f5831e9c8ecb66ab3aa308b2ff31eaca434615f6c9cadc656a9af71c85856040516107fb929190610f26565b60405180910390a250505061080e610c20565b50565b610819610ab6565b5f811161085b576040517f08c379a000000000000000000000000000000000000000000000000000000000815260040161085290610f97565b60405180910390fd5b8047101561089e576040517f08c379a00000000000000000000000000000000000000000000000000000000081526004016108959061119a565b60405180910390fd5b5f3373ffffffffffffffffffffffffffffffffffffffff16826040516108c3906112d7565b5f6040518083038185875af1925050503d805f81146108fd576040519150601f19603f3d011682016040523d82523d5f602084013e610902565b606091505b5050905080610946576040517f08c379a000000000000000000000000000000000000000000000000000000000815260040161093d9061139d565b60405180910390fd5b3373ffffffffffffffffffffffffffffffffffffffff167f8455ae6be5d92f1df1c3c1484388e247a36c7e60d72055ae216dbc258f257d4b8360405161098c9190610ce8565b60405180910390a25050565b6109a0610ab6565b5f73ffffffffffffffffffffffffffffffffffffffff168173ffffffffffffffffffffffffffffffffffffffff1603610a10575f6040517f1e4fbdf7000000000000000000000000000000000000000000000000000000008152600401610a079190610dcc565b60405180910390fd5b610a1981610b3d565b50565b610a24610ab6565b5f3411610a66576040517f08c379a0000000000000000000000000000000000000000000000000000000008152600401610a5d90611405565b60405180910390fd5b3373ffffffffffffffffffffffffffffffffffffffff167f66ff7c8f71ccc7c36152a41920d0d3b46ef3034359f76aa1498ed4478c204b5c34604051610aac9190610ce8565b60405180910390a2565b610abe610c3a565b73ffffffffffffffffffffffffffffffffffffffff16610adc6104b7565b73ffffffffffffffffffffffffffffffffffffffff1614610b3b57610aff610c3a565b6040517f118cdaa7000000000000000000000000000000000000000000000000000000008152600401610b329190610dcc565b60405180910390fd5b565b5f5f5f9054906101000a900473ffffffffffffffffffffffffffffffffffffffff169050815f5f6101000a81548173ffffffffffffffffffffffffffffffffffffffff021916908373ffffffffffffffffffffffffffffffffffffffff1602179055508173ffffffffffffffffffffffffffffffffffffffff168173ffffffffffffffffffffffffffffffffffffffff167f8be0079c531659141344cd1fd0a4f28419497f9722a3daafe3b4186f6b6457e060405160405180910390a35050565b610c06610c41565b6002610c18610c13610c82565b610cab565b5f0181905550565b6001610c32610c2d610c82565b610cab565b5f0181905550565b5f33905090565b610c49610cb4565b15610c80576040517f3ee5aeb500000000000000000000000000000000000000000000000000000000815260040160405180910390fd5b565b5f7f9b779b17422d0df92223018b32b4d1fa46e071723d6817e2486d003becc55f005f1b905090565b5f819050919050565b5f6002610cc7610cc2610c82565b610cab565b5f015414905090565b5f819050919050565b610ce281610cd0565b82525050565b5f602082019050610cfb5f830184610cd9565b92915050565b5f8115159050919050565b610d1581610d01565b82525050565b5f602082019050610d2e5f830184610d0c565b92915050565b5f5ffd5b610d4181610cd0565b8114610d4b575f5ffd5b50565b5f81359050610d5c81610d38565b92915050565b5f60208284031215610d7757610d76610d34565b5b5f610d8484828501610d4e565b91505092915050565b5f73ffffffffffffffffffffffffffffffffffffffff82169050919050565b5f610db682610d8d565b9050919050565b610dc681610dac565b82525050565b5f602082019050610ddf5f830184610dbd565b92915050565b5f819050919050565b5f610e08610e03610dfe84610d8d565b610de5565b610d8d565b9050919050565b5f610e1982610dee565b9050919050565b5f610e2a82610e0f565b9050919050565b610e3a81610e20565b82525050565b5f602082019050610e535f830184610e31565b92915050565b610e6281610dac565b8114610e6c575f5ffd5b50565b5f81359050610e7d81610e59565b92915050565b5f60208284031215610e9857610e97610d34565b5b5f610ea584828501610e6f565b91505092915050565b5f82825260208201905092915050565b7f696e76616c6964207261746500000000000000000000000000000000000000005f82015250565b5f610ef2600c83610eae565b9150610efd82610ebe565b602082019050919050565b5f6020820190508181035f830152610f1f81610ee6565b9050919050565b5f604082019050610f395f830185610cd9565b610f466020830184610cd9565b9392505050565b7f7a65726f20616d6f756e740000000000000000000000000000000000000000005f82015250565b5f610f81600b83610eae565b9150610f8c82610f4d565b602082019050919050565b5f6020820190508181035f830152610fae81610f75565b9050919050565b7f4e487b71000000000000000000000000000000000000000000000000000000005f52601160045260245ffd5b5f610fec82610cd0565b9150610ff783610cd0565b925082820261100581610cd0565b9150828204841483151761101c5761101b610fb5565b5b5092915050565b7f4e487b71000000000000000000000000000000000000000000000000000000005f52601260045260245ffd5b5f61105a82610cd0565b915061106583610cd0565b92508261107557611074611023565b5b828204905092915050565b7f73776170207061757365640000000000000000000000000000000000000000005f82015250565b5f6110b4600b83610eae565b91506110bf82611080565b602082019050919050565b5f6020820190508181035f8301526110e1816110a8565b9050919050565b7f746f6f20666577205944000000000000000000000000000000000000000000005f82015250565b5f61111c600a83610eae565b9150611127826110e8565b602082019050919050565b5f6020820190508181035f83015261114981611110565b9050919050565b7f696e73756666696369656e742062616c616e63650000000000000000000000005f82015250565b5f611184601483610eae565b915061118f82611150565b602082019050919050565b5f6020820190508181035f8301526111b181611178565b9050919050565b5f6060820190506111cb5f830186610dbd565b6111d86020830185610dbd565b6111e56040830184610cd9565b949350505050565b6111f681610d01565b8114611200575f5ffd5b50565b5f81519050611211816111ed565b92915050565b5f6020828403121561122c5761122b610d34565b5b5f61123984828501611203565b91505092915050565b7f5944207472616e73666572206661696c656400000000000000000000000000005f82015250565b5f611276601283610eae565b915061128182611242565b602082019050919050565b5f6020820190508181035f8301526112a38161126a565b9050919050565b5f81905092915050565b50565b5f6112c25f836112aa565b91506112cd826112b4565b5f82019050919050565b5f6112e1826112b7565b9150819050919050565b7f455448207472616e73666572206661696c6564000000000000000000000000005f82015250565b5f61131f601383610eae565b915061132a826112eb565b602082019050919050565b5f6020820190508181035f83015261134c81611313565b9050919050565b7f6661696c656420746f20776974686472617700000000000000000000000000005f82015250565b5f611387601283610eae565b915061139282611353565b602082019050919050565b5f6020820190508181035f8301526113b48161137b565b9050919050565b7f6e6f2065746800000000000000000000000000000000000000000000000000005f82015250565b5f6113ef600683610eae565b91506113fa826113bb565b602082019050919050565b5f6020820190508181035f83015261141c816113e3565b905091905056fea2646970667358221220aaf3e18eb02f6f9f82f51a2c79c87ddfac463985840b322e4295046aaed2779b64736f6c634300081e0033",
    "linkReferences": {}
  },
  "methodIdentifiers": {
    "YDPerEth()": "0b058d81",
    "YD_TOKEN()": "c6b60855",
    "depositETH()": "f6326fb3",
    "getEthAmountOut(uint256)": "699c0597",
    "isActive()": "22f3e2d4",
    "owner()": "8da5cb5b",
    "pause()": "8456cb59",
    "renounceOwnership()": "715018a6",
    "setRate(uint256)": "34fcf437",
    "swapYDForEth(uint256)": "ea6e6b67",
    "transferOwnership(address)": "f2fde38b",
    "unpause()": "3f4ba83a",
    "withdrawETH(uint256)": "f14210a6"
  },
  "id": 5
}