{
  "abi": [
    {
      "type": "constructor",
      "inputs": [
        {
          "name": "_token",
          "type": "address",
          "internalType": "address"
        }
      ],
      "stateMutability": "nonpayable"
    },
    {
      "type": "function",
      "name": "amountPerClaim",
      "inputs": [],
      "outputs": [
        {
          "name": "",
          "type": "uint256",
          "internalType": "uint256"
        }
      ],
      "stateMutability": "view"
    },
    {
      "type": "function",
      "name": "claim",
      "inputs": [],
      "outputs": [],
      "stateMutability": "nonpayable"
    },
    {
      "type": "function",
      "name": "hasClaimed",
      "inputs": [
        {
          "name": "",
          "type": "address",
          "internalType": "address"
        }
      ],
      "outputs": [
        {
          "name": "",
          "type": "bool",
          "internalType": "bool"
        }
      ],
      "stateMutability": "view"
    },
    {
      "type": "function",
      "name": "token",
      "inputs": [],
      "outputs": [
        {
          "name": "",
          "type": "address",
          "internalType": "contract YDToken"
        }
      ],
      "stateMutability": "view"
    },
    {
      "type": "event",
      "name": "Claimed",
      "inputs": [
        {
          "name": "success",
          "type": "bool",
          "indexed": false,
          "internalType": "bool"
        },
        {
          "name": "user",
          "type": "address",
          "indexed": true,
          "internalType": "address"
        },
        {
          "name": "amount",
          "type": "uint256",
          "indexed": false,
          "internalType": "uint256"
        }
      ],
      "anonymous": false
    }
  ],
  "bytecode": {
    "object": "0x60806040526103e8600155348015610015575f5ffd5b50604051610864380380610864833981810160405281019061003791906100da565b805f5f6101000a81548173ffffffffffffffffffffffffffffffffffffffff021916908373ffffffffffffffffffffffffffffffffffffffff16021790555050610105565b5f5ffd5b5f73ffffffffffffffffffffffffffffffffffffffff82169050919050565b5f6100a982610080565b9050919050565b6100b98161009f565b81146100c3575f5ffd5b50565b5f815190506100d4816100b0565b92915050565b5f602082840312156100ef576100ee61007c565b5b5f6100fc848285016100c6565b91505092915050565b610752806101125f395ff3fe608060405234801561000f575f5ffd5b506004361061004a575f3560e01c8063013d88471461004e5780634e71d92d1461006c57806373b2e80e14610076578063fc0c546a146100a6575b5f5ffd5b6100566100c4565b60405161006391906103d3565b60405180910390f35b6100746100ca565b005b610090600480360381019061008b919061044a565b61037a565b60405161009d919061048f565b60405180910390f35b6100ae610397565b6040516100bb9190610503565b60405180910390f35b60015481565b60025f3373ffffffffffffffffffffffffffffffffffffffff1673ffffffffffffffffffffffffffffffffffffffff1681526020019081526020015f205f9054906101000a900460ff1615610154576040517f08c379a000000000000000000000000000000000000000000000000000000000815260040161014b90610576565b60405180910390fd5b600160025f3373ffffffffffffffffffffffffffffffffffffffff1673ffffffffffffffffffffffffffffffffffffffff1681526020019081526020015f205f6101000a81548160ff0219169083151502179055506001545f5f9054906101000a900473ffffffffffffffffffffffffffffffffffffffff1673ffffffffffffffffffffffffffffffffffffffff166370a08231306040518263ffffffff1660e01b815260040161020591906105a3565b602060405180830381865afa158015610220573d5f5f3e3d5ffd5b505050506040513d601f19601f8201168201806040525081019061024491906105e6565b1015610285576040517f08c379a000000000000000000000000000000000000000000000000000000000815260040161027c9061065b565b60405180910390fd5b5f5f5f9054906101000a900473ffffffffffffffffffffffffffffffffffffffff1673ffffffffffffffffffffffffffffffffffffffff1663a9059cbb336001546040518363ffffffff1660e01b81526004016102e3929190610679565b6020604051808303815f875af11580156102ff573d5f5f3e3d5ffd5b505050506040513d601f19601f8201168201806040525081019061032391906106ca565b90503373ffffffffffffffffffffffffffffffffffffffff167faf72a59a67321c4fc553376b71776c0f6bd9f734eb17039f3ef793d3e4d83e3e8260015460405161036f9291906106f5565b60405180910390a250565b6002602052805f5260405f205f915054906101000a900460ff1681565b5f5f9054906101000a900473ffffffffffffffffffffffffffffffffffffffff1681565b5f819050919050565b6103cd816103bb565b82525050565b5f6020820190506103e65f8301846103c4565b92915050565b5f5ffd5b5f73ffffffffffffffffffffffffffffffffffffffff82169050919050565b5f610419826103f0565b9050919050565b6104298161040f565b8114610433575f5ffd5b50565b5f8135905061044481610420565b92915050565b5f6020828403121561045f5761045e6103ec565b5b5f61046c84828501610436565b91505092915050565b5f8115159050919050565b61048981610475565b82525050565b5f6020820190506104a25f830184610480565b92915050565b5f819050919050565b5f6104cb6104c66104c1846103f0565b6104a8565b6103f0565b9050919050565b5f6104dc826104b1565b9050919050565b5f6104ed826104d2565b9050919050565b6104fd816104e3565b82525050565b5f6020820190506105165f8301846104f4565b92915050565b5f82825260208201905092915050565b7f416c726561647920636c61696d656400000000000000000000000000000000005f82015250565b5f610560600f8361051c565b915061056b8261052c565b602082019050919050565b5f6020820190508181035f83015261058d81610554565b9050919050565b61059d8161040f565b82525050565b5f6020820190506105b65f830184610594565b92915050565b6105c5816103bb565b81146105cf575f5ffd5b50565b5f815190506105e0816105bc565b92915050565b5f602082840312156105fb576105fa6103ec565b5b5f610608848285016105d2565b91505092915050565b7f496e73756666696369656e742062616c616e63650000000000000000000000005f82015250565b5f61064560148361051c565b915061065082610611565b602082019050919050565b5f6020820190508181035f83015261067281610639565b9050919050565b5f60408201905061068c5f830185610594565b61069960208301846103c4565b9392505050565b6106a981610475565b81146106b3575f5ffd5b50565b5f815190506106c4816106a0565b92915050565b5f602082840312156106df576106de6103ec565b5b5f6106ec848285016106b6565b91505092915050565b5f6040820190506107085f830185610480565b61071560208301846103c4565b939250505056fea2646970667358221220a474030a1c5b2cab0d87fa4340f0d8679bb25335b98b47e51560ff8671fe59c464736f6c634300081e0033",
    "linkReferences": {}
  },
  "methodIdentifiers": {
    "amountPerClaim()": "013d8847",
    "claim()": "4e71d92d",
    "hasClaimed(address)": "73b2e80e",
    "token()": "fc0c546a"
  },
  "id": 31
}