{
  "abi": [
    {
      "type": "constructor",
      "inputs": [],
      "stateMutability": "nonpayable"
    },
    {
      "type": "function",
      "name": "allowance",
      "inputs": [
        {
          "name": "owner",
          "type": "address",
          "internalType": "address"
        },
        {
          "name": "spender",
          "type": "address",
          "internalType": "address"
        }
      ],
      "outputs": [
        {
          "name": "",
          "type": "uint256",
          "internalType": "uint256"
        }
      ],
      "stateMutability": "view"
    },
    {
      "type": "function",
      "name": "approve",
      "inputs": [
        {
          "name": "spender",
          "type": "address",
          "internalType": "address"
        },
        {
          "name": "value",
          "type": "uint256",
          "internalType": "uint256"
        }
      ],
      "outputs": [
        {
          "name": "",
          "type": "bool",
          "internalType": "bool"
        }
      ],
      "stateMutability": "nonpayable"
    },
    {
      "type": "function",
      "name": "balanceOf",
      "inputs": [
        {
          "name": "account",
          "type": "address",
          "internalType": "address"
        }
      ],
      "outputs": [
        {
          "name": "",
          "type": "uint256",
          "internalType": "uint256"
        }
      ],
      "stateMutability": "view"
    },
    {
      "type": "function",
      "name": "burn",
      "inputs": [
        {
          "name": "amount",
          "type": "uint256",
          "internalType": "uint256"
        }
      ],
      "outputs": [],
      "stateMutability": "nonpayable"
    },
    {
      "type": "function",
      "name": "burnFrom",
      "inputs": [
        {
          "name": "account",
          "type": "address",
          "internalType": "address"
        },
        {
          "name": "amount",
          "type": "uint256",
          "internalType": "uint256"
        }
      ],
      "outputs": [],
      "stateMutability": "nonpayable"
    },
    {
      "type": "function",
      "name": "decimals",
      "inputs": [],
      "outputs": [
        {
          "name": "",
          "type": "uint8",
          "internalType": "uint8"
        }
      ],
      "stateMutability": "pure"
    },
    {
      "type": "function",
      "name": "mint",
      "inputs": [
        {
          "name": "to",
          "type": "address",
          "internalType": "address"
        },
        {
          "name": "amount",
          "type": "uint256",
          "internalType": "uint256"
        }
      ],
      "outputs": [],
      "stateMutability": "nonpayable"
    },
    {
      "type": "function",
      "name": "name",
      "inputs": [],
      "outputs": [
        {
          "name": "",
          "type": "string",
          "internalType": "string"
        }
      ],
      "stateMutability": "view"
    },
    {
      "type": "function",
      "name": "owner",
      "inputs": [],
      "outputs": [
        {
          "name": "",
          "type": "address",
          "internalType": "address"
        }
      ],
      "stateMutability": "view"
    },
    {
      "type": "function",
      "name": "renounceOwnership",
      "inputs": [],
      "outputs": [],
      "stateMutability": "nonpayable"
    },
    {
      "type": "function",
      "name": "symbol",
      "inputs": [],
      "outputs": [
        {
          "name": "",
          "type": "string",
          "internalType": "string"
        }
      ],
      "stateMutability": "view"
    },
    {
      "type": "function",
      "name": "totalSupply",
      "inputs": [],
      "outputs": [
        {
          "name": "",
          "type": "uint256",
          "internalType": "uint256"
        }
      ],
      "stateMutability": "view"
    },
    {
      "type": "function",
      "name": "transfer",
      "inputs": [
        {
          "name": "to",
          "type": "address",
          "internalType": "address"
        },
        {
          "name": "value",
          "type": "uint256",
          "internalType": "uint256"
        }
      ],
      "outputs": [
        {
          "name": "",
          "type": "bool",
          "internalType": "bool"
        }
      ],
      "stateMutability": "nonpayable"
    },
    {
      "type": "function",
      "name": "transferFrom",
      "inputs": [
        {
          "name": "from",
          "type": "address",
          "internalType": "address"
        },
        {
          "name": "to",
          "type": "address",
          "internalType": "address"
        },
        {
          "name": "value",
          "type": "uint256",
          "internalType": "uint256"
        }
      ],
      "outputs": [
        {
          "name": "",
          "type": "bool",
          "internalType": "bool"
        }
      ],
      "stateMutability": "nonpayable"
    },
    {
      "type": "function",
      "name": "transferOwnership",
      "inputs": [
        {
          "name": "newOwner",
          "type": "address",
          "internalType": "address"
        }
      ],
      "outputs": [],
      "stateMutability": "nonpayable"
    },
    {
      "type": "event",
      "name": "Approval",
      "inputs": [
        {
          "name": "owner",
          "type": "address",
          "indexed": true,
          "internalType": "address"
        },
        {
          "name": "spender",
          "type": "address",
          "indexed": true,
          "internalType": "address"
        },
        {
          "name": "value",
          "type": "uint256",
          "indexed": false,
          "internalType": "uint256"
        }
      ],
      "anonymous": false
    },
    {
      "type": "event",
      "name": "OwnershipTransferred",
      "inputs": [
        {
          "name": "previousOwner",
          "type": "address",
          "indexed": true,
          "internalType": "address"
        },
        {
          "name": "newOwner",
          "type": "address",
          "indexed": true,
          "internalType": "address"
        }
      ],
      "anonymous": false
    },
    {
      "type": "event",
      "name": "Transfer",
      "inputs": [
        {
          "name": "from",
          "type": "address",
          "indexed": true,
          "internalType": "address"
        },
        {
          "name": "to",
          "type": "address",
          "indexed": true,
          "internalType": "address"
        },
        {
          "name": "value",
          "type": "uint256",
          "indexed": false,
          "internalType": "uint256"
        }
      ],
      "anonymous": false
    },
    {
      "type": "error",
      "name": "ERC20InsufficientAllowance",
      "inputs": [
        {
          "name": "spender",
          "type": "address",
          "internalType": "address"
        },
        {
          "name": "allowance",
          "type": "uint256",
          "internalType": "uint256"
        },
        {
          "name": "needed",
          "type": "uint256",
          "internalType": "uint256"
        }
      ]
    },
    {
      "type": "error",
      "name": "ERC20InsufficientBalance",
      "inputs": [
        {
          "name": "sender",
          "type": "address",
          "internalType": "address"
        },
        {
          "name": "balance",
          "type": "uint256",
          "internalType": "uint256"
        },
        {
          "name": "needed",
          "type": "uint256",
          "internalType": "uint256"
        }
      ]
    },
    {
      "type": "error",
      "name": "ERC20InvalidApprover",
      "inputs": [
        {
          "name": "approver",
          "type": "address",
          "internalType": "address"
        }
      ]
    },
    {
      "type": "error",
      "name": "ERC20InvalidReceiver",
      "inputs": [
        {
          "name": "receiver",
          "type": "address",
          "internalType": "address"
        }
      ]
    },
    {
      "type": "error",
      "name": "ERC20InvalidSender",
      "inputs": [
        {
          "name": "sender",
          "type": "address",
          "internalType": "address"
        }
      ]
    },
    {
      "type": "error",
      "name": "ERC20InvalidSpender",
      "inputs": [
        {
          "name": "spender",
          "type": "address",
          "internalType": "address"
        }
      ]
    },
    {
      "type": "error",
      "name": "OwnableInvalidOwner",
      "inputs": [
        {
          "name": "owner",
          "type": "address",
          "internalType": "address"
        }
      ]
    },
    {
      "type": "error",
      "name": "OwnableUnauthorizedAccount",
      "inputs": [
        {
          "name": "account",
          "type": "address",
          "internalType": "address"
        }
      ]
    }
  ],
  "bytecode": {
    "object": "0x608060405234801561000f575f5ffd5b50336040518060400160405280600781526020017f5944546f6b656e000000000000000000000000000000000000000000000000008152506040518060400160405280600281526020017f5944000000000000000000000000000000000000000000000000000000000000815250816003908161008c91906106d5565b50806004908161009c91906106d5565b5050505f73ffffffffffffffffffffffffffffffffffffffff168173ffffffffffffffffffffffffffffffffffffffff160361010f575f6040517f1e4fbdf700000000000000000000000000000000000000000000000000000000815260040161010691906107e3565b60405180910390fd5b61011e8161013760201b60201c565b5061013233620f42406101fa60201b60201c565b6108b9565b5f60055f9054906101000a900473ffffffffffffffffffffffffffffffffffffffff1690508160055f6101000a81548173ffffffffffffffffffffffffffffffffffffffff021916908373ffffffffffffffffffffffffffffffffffffffff1602179055508173ffffffffffffffffffffffffffffffffffffffff168173ffffffffffffffffffffffffffffffffffffffff167f8be0079c531659141344cd1fd0a4f28419497f9722a3daafe3b4186f6b6457e060405160405180910390a35050565b5f73ffffffffffffffffffffffffffffffffffffffff168273ffffffffffffffffffffffffffffffffffffffff160361026a575f6040517fec442f0500000000000000000000000000000000000000000000000000000000815260040161026191906107e3565b60405180910390fd5b61027b5f838361027f60201b60201c565b5050565b5f73ffffffffffffffffffffffffffffffffffffffff168373ffffffffffffffffffffffffffffffffffffffff16036102cf578060025f8282546102c39190610829565b9250508190555061039d565b5f5f5f8573ffffffffffffffffffffffffffffffffffffffff1673ffffffffffffffffffffffffffffffffffffffff1681526020019081526020015f2054905081811015610358578381836040517fe450d38c00000000000000000000000000000000000000000000000000000000815260040161034f9392919061086b565b60405180910390fd5b8181035f5f8673ffffffffffffffffffffffffffffffffffffffff1673ffffffffffffffffffffffffffffffffffffffff1681526020019081526020015f2081905550505b5f73ffffffffffffffffffffffffffffffffffffffff168273ffffffffffffffffffffffffffffffffffffffff16036103e4578060025f828254039250508190555061042e565b805f5f8473ffffffffffffffffffffffffffffffffffffffff1673ffffffffffffffffffffffffffffffffffffffff1681526020019081526020015f205f82825401925050819055505b8173ffffffffffffffffffffffffffffffffffffffff168373ffffffffffffffffffffffffffffffffffffffff167fddf252ad1be2c89b69c2b068fc378daa952ba7f163c4a11628f55a4df523b3ef8360405161048b91906108a0565b60405180910390a3505050565b5f81519050919050565b7f4e487b71000000000000000000000000000000000000000000000000000000005f52604160045260245ffd5b7f4e487b71000000000000000000000000000000000000000000000000000000005f52602260045260245ffd5b5f600282049050600182168061051357607f821691505b602082108103610526576105256104cf565b5b50919050565b5f819050815f5260205f209050919050565b5f6020601f8301049050919050565b5f82821b905092915050565b5f600883026105887fffffffffffffffffffffffffffffffffffffffffffffffffffffffffffffffff8261054d565b610592868361054d565b95508019841693508086168417925050509392505050565b5f819050919050565b5f819050919050565b5f6105d66105d16105cc846105aa565b6105b3565b6105aa565b9050919050565b5f819050919050565b6105ef836105bc565b6106036105fb826105dd565b848454610559565b825550505050565b5f5f905090565b61061a61060b565b6106258184846105e6565b505050565b5b818110156106485761063d5f82610612565b60018101905061062b565b5050565b601f82111561068d5761065e8161052c565b6106678461053e565b81016020851015610676578190505b61068a6106828561053e565b83018261062a565b50505b505050565b5f82821c905092915050565b5f6106ad5f1984600802610692565b1980831691505092915050565b5f6106c5838361069e565b9150826002028217905092915050565b6106de82610498565b67ffffffffffffffff8111156106f7576106f66104a2565b5b61070182546104fc565b61070c82828561064c565b5f60209050601f83116001811461073d575f841561072b578287015190505b61073585826106ba565b86555061079c565b601f19841661074b8661052c565b5f5b828110156107725784890151825560018201915060208501945060208101905061074d565b8683101561078f578489015161078b601f89168261069e565b8355505b6001600288020188555050505b505050505050565b5f73ffffffffffffffffffffffffffffffffffffffff82169050919050565b5f6107cd826107a4565b9050919050565b6107dd816107c3565b82525050565b5f6020820190506107f65f8301846107d4565b92915050565b7f4e487b71000000000000000000000000000000000000000000000000000000005f52601160045260245ffd5b5f610833826105aa565b915061083e836105aa565b9250828201905080821115610856576108556107fc565b5b92915050565b610865816105aa565b82525050565b5f60608201905061087e5f8301866107d4565b61088b602083018561085c565b610898604083018461085c565b949350505050565b5f6020820190506108b35f83018461085c565b92915050565b611246806108c65f395ff3fe608060405234801561000f575f5ffd5b50600436106100f3575f3560e01c806370a082311161009557806395d89b411161006457806395d89b411461025d578063a9059cbb1461027b578063dd62ed3e146102ab578063f2fde38b146102db576100f3565b806370a08231146101e9578063715018a61461021957806379cc6790146102235780638da5cb5b1461023f576100f3565b806323b872dd116100d157806323b872dd14610163578063313ce5671461019357806340c10f19146101b157806342966c68146101cd576100f3565b806306fdde03146100f7578063095ea7b31461011557806318160ddd14610145575b5f5ffd5b6100ff6102f7565b60405161010c9190610e94565b60405180910390f35b61012f600480360381019061012a9190610f45565b610387565b60405161013c9190610f9d565b60405180910390f35b61014d6103a9565b60405161015a9190610fc5565b60405180910390f35b61017d60048036038101906101789190610fde565b6103b2565b60405161018a9190610f9d565b60405180910390f35b61019b6103e0565b6040516101a89190611049565b60405180910390f35b6101cb60048036038101906101c69190610f45565b6103e7565b005b6101e760048036038101906101e29190611062565b6103fd565b005b61020360048036038101906101fe919061108d565b61040a565b6040516102109190610fc5565b60405180910390f35b61022161044f565b005b61023d60048036038101906102389190610f45565b610462565b005b610247610478565b60405161025491906110c7565b60405180910390f35b6102656104a0565b6040516102729190610e94565b60405180910390f35b61029560048036038101906102909190610f45565b610530565b6040516102a29190610f9d565b60405180910390f35b6102c560048036038101906102c091906110e0565b610552565b6040516102d29190610fc5565b60405180910390f35b6102f560048036038101906102f0919061108d565b6105d4565b005b6060600380546103069061114b565b80601f01602080910402602001604051908101604052809291908181526020018280546103329061114b565b801561037d5780601f106103545761010080835404028352916020019161037d565b820191905f5260205f20905b81548152906001019060200180831161036057829003601f168201915b5050505050905090565b5f5f610391610658565b905061039e81858561065f565b600191505092915050565b5f600254905090565b5f5f6103bc610658565b90506103c9858285610671565b6103d4858585610704565b60019150509392505050565b5f5f905090565b6103ef6107f4565b6103f9828261087b565b5050565b61040733826108fa565b50565b5f5f5f8373ffffffffffffffffffffffffffffffffffffffff1673ffffffffffffffffffffffffffffffffffffffff1681526020019081526020015f20549050919050565b6104576107f4565b6104605f610979565b565b61046a6107f4565b61047482826108fa565b5050565b5f60055f9054906101000a900473ffffffffffffffffffffffffffffffffffffffff16905090565b6060600480546104af9061114b565b80601f01602080910402602001604051908101604052809291908181526020018280546104db9061114b565b80156105265780601f106104fd57610100808354040283529160200191610526565b820191905f5260205f20905b81548152906001019060200180831161050957829003601f168201915b5050505050905090565b5f5f61053a610658565b9050610547818585610704565b600191505092915050565b5f60015f8473ffffffffffffffffffffffffffffffffffffffff1673ffffffffffffffffffffffffffffffffffffffff1681526020019081526020015f205f8373ffffffffffffffffffffffffffffffffffffffff1673ffffffffffffffffffffffffffffffffffffffff1681526020019081526020015f2054905092915050565b6105dc6107f4565b5f73ffffffffffffffffffffffffffffffffffffffff168173ffffffffffffffffffffffffffffffffffffffff160361064c575f6040517f1e4fbdf700000000000000000000000000000000000000000000000000000000815260040161064391906110c7565b60405180910390fd5b61065581610979565b50565b5f33905090565b61066c8383836001610a3c565b505050565b5f61067c8484610552565b90507fffffffffffffffffffffffffffffffffffffffffffffffffffffffffffffffff8110156106fe57818110156106ef578281836040517ffb8f41b20000000000000000000000000000000000000000000000000000000081526004016106e69392919061117b565b60405180910390fd5b6106fd84848484035f610a3c565b5b50505050565b5f73ffffffffffffffffffffffffffffffffffffffff168373ffffffffffffffffffffffffffffffffffffffff1603610774575f6040517f96c6fd1e00000000000000000000000000000000000000000000000000000000815260040161076b91906110c7565b60405180910390fd5b5f73ffffffffffffffffffffffffffffffffffffffff168273ffffffffffffffffffffffffffffffffffffffff16036107e4575f6040517fec442f050000000000000000000000000000000000000000000000000000000081526004016107db91906110c7565b60405180910390fd5b6107ef838383610c0b565b505050565b6107fc610658565b73ffffffffffffffffffffffffffffffffffffffff1661081a610478565b73ffffffffffffffffffffffffffffffffffffffff16146108795761083d610658565b6040517f118cdaa700000000000000000000000000000000000000000000000000000000815260040161087091906110c7565b60405180910390fd5b565b5f73ffffffffffffffffffffffffffffffffffffffff168273ffffffffffffffffffffffffffffffffffffffff16036108eb575f6040517fec442f050000000000000000000000000000000000000000000000000000000081526004016108e291906110c7565b60405180910390fd5b6108f65f8383610c0b565b5050565b5f73ffffffffffffffffffffffffffffffffffffffff168273ffffffffffffffffffffffffffffffffffffffff160361096a575f6040517f96c6fd1e00000000000000000000000000000000000000000000000000000000815260040161096191906110c7565b60405180910390fd5b610975825f83610c0b565b5050565b5f60055f9054906101000a900473ffffffffffffffffffffffffffffffffffffffff1690508160055f6101000a81548173ffffffffffffffffffffffffffffffffffffffff021916908373ffffffffffffffffffffffffffffffffffffffff1602179055508173ffffffffffffffffffffffffffffffffffffffff168173ffffffffffffffffffffffffffffffffffffffff167f8be0079c531659141344cd1fd0a4f28419497f9722a3daafe3b4186f6b6457e060405160405180910390a35050565b5f73ffffffffffffffffffffffffffffffffffffffff168473ffffffffffffffffffffffffffffffffffffffff1603610aac575f6040517fe602df05000000000000000000000000000000000000000000000000000000008152600401610aa391906110c7565b60405180910390fd5b5f73ffffffffffffffffffffffffffffffffffffffff168373ffffffffffffffffffffffffffffffffffffffff1603610b1c575f6040517f94280d62000000000000000000000000000000000000000000000000000000008152600401610b1391906110c7565b60405180910390fd5b8160015f8673ffffffffffffffffffffffffffffffffffffffff1673ffffffffffffffffffffffffffffffffffffffff1681526020019081526020015f205f8573ffffffffffffffffffffffffffffffffffffffff1673ffffffffffffffffffffffffffffffffffffffff1681526020019081526020015f20819055508015610c05578273ffffffffffffffffffffffffffffffffffffffff168473ffffffffffffffffffffffffffffffffffffffff167f8c5be1e5ebec7d5bd14f71427d1e84f3dd0314c0f7b2291e5b200ac8c7c3b92584604051610bfc9190610fc5565b60405180910390a35b50505050565b5f73ffffffffffffffffffffffffffffffffffffffff168373ffffffffffffffffffffffffffffffffffffffff1603610c5b578060025f828254610c4f91906111dd565b92505081905550610d29565b5f5f5f8573ffffffffffffffffffffffffffffffffffffffff1673ffffffffffffffffffffffffffffffffffffffff1681526020019081526020015f2054905081811015610ce4578381836040517fe450d38c000000000000000000000000000000000000000000000000000000008152600401610cdb9392919061117b565b60405180910390fd5b8181035f5f8673ffffffffffffffffffffffffffffffffffffffff1673ffffffffffffffffffffffffffffffffffffffff1681526020019081526020015f2081905550505b5f73ffffffffffffffffffffffffffffffffffffffff168273ffffffffffffffffffffffffffffffffffffffff1603610d70578060025f8282540392505081905550610dba565b805f5f8473ffffffffffffffffffffffffffffffffffffffff1673ffffffffffffffffffffffffffffffffffffffff1681526020019081526020015f205f82825401925050819055505b8173ffffffffffffffffffffffffffffffffffffffff168373ffffffffffffffffffffffffffffffffffffffff167fddf252ad1be2c89b69c2b068fc378daa952ba7f163c4a11628f55a4df523b3ef83604051610e179190610fc5565b60405180910390a3505050565b5f81519050919050565b5f82825260208201905092915050565b8281835e5f83830152505050565b5f601f19601f8301169050919050565b5f610e6682610e24565b610e708185610e2e565b9350610e80818560208601610e3e565b610e8981610e4c565b840191505092915050565b5f6020820190508181035f830152610eac8184610e5c565b905092915050565b5f5ffd5b5f73ffffffffffffffffffffffffffffffffffffffff82169050919050565b5f610ee182610eb8565b9050919050565b610ef181610ed7565b8114610efb575f5ffd5b50565b5f81359050610f0c81610ee8565b92915050565b5f819050919050565b610f2481610f12565b8114610f2e575f5ffd5b50565b5f81359050610f3f81610f1b565b92915050565b5f5f60408385031215610f5b57610f5a610eb4565b5b5f610f6885828601610efe565b9250506020610f7985828601610f31565b9150509250929050565b5f8115159050919050565b610f9781610f83565b82525050565b5f602082019050610fb05f830184610f8e565b92915050565b610fbf81610f12565b82525050565b5f602082019050610fd85f830184610fb6565b92915050565b5f5f5f60608486031215610ff557610ff4610eb4565b5b5f61100286828701610efe565b935050602061101386828701610efe565b925050604061102486828701610f31565b9150509250925092565b5f60ff82169050919050565b6110438161102e565b82525050565b5f60208201905061105c5f83018461103a565b92915050565b5f6020828403121561107757611076610eb4565b5b5f61108484828501610f31565b91505092915050565b5f602082840312156110a2576110a1610eb4565b5b5f6110af84828501610efe565b91505092915050565b6110c181610ed7565b82525050565b5f6020820190506110da5f8301846110b8565b92915050565b5f5f604083850312156110f6576110f5610eb4565b5b5f61110385828601610efe565b925050602061111485828601610efe565b9150509250929050565b7f4e487b71000000000000000000000000000000000000000000000000000000005f52602260045260245ffd5b5f600282049050600182168061116257607f821691505b6020821081036111755761117461111e565b5b50919050565b5f60608201905061118e5f8301866110b8565b61119b6020830185610fb6565b6111a86040830184610fb6565b949350505050565b7f4e487b71000000000000000000000000000000000000000000000000000000005f52601160045260245ffd5b5f6111e782610f12565b91506111f283610f12565b925082820190508082111561120a576112096111b0565b5b9291505056fea264697066735822122052821dd14597d2a37c20716895cf65c26b3bd2f017e3dd47feecaf87111e291064736f6c634300081e0033",
    "linkReferences": {}
  },
  "methodIdentifiers": {
    "allowance(address,address)": "dd62ed3e",
    "approve(address,uint256)": "095ea7b3",
    "balanceOf(address)": "70a08231",
    "burn(uint256)": "42966c68",
    "burnFrom(address,uint256)": "79cc6790",
    "decimals()": "313ce567",
    "mint(address,uint256)": "40c10f19",
    "name()": "06fdde03",
    "owner()": "8da5cb5b",
    "renounceOwnership()": "715018a6",
    "symbol()": "95d89b41",
    "totalSupply()": "18160ddd",
    "transfer(address,uint256)": "a9059cbb",
    "transferFrom(address,address,uint256)": "23b872dd",
    "transferOwnership(address)": "f2fde38b"
  },
  "id": 32
}